:100000000C94630B0C948B0B0C948B0B0C948B0B40
:100010000C948B0B0C948B0B0C948B0B0C948B0B08
:100020000C948B0B0C948B0B0C948B0B0C948B0BF8
:100030000C948B0B0C948B0B0C948B0B0C948B0BE8
:100040000C9450100C948B0B0C9434110C940E11D6
:100050000C948B0B0C948B0B0C948B0B0C948B0BC8
:100060000C948B0B0C948B0B0E12641234122E1208
:1000700049124D12581200000000240027002A00E7
:1000800000000000230026002900000000080002F4
:100090000100000304070000000000000000FFE072
:1000A000FFD1AFFF32FFD0FFFEFFE0FFD1AEFFD0A8
:1000B000FFFEFFE0FFD11002FFFEFFD0FFE0FFC117
:1000C000FFD1AED580A83FD300408D142002A1C837
:1000D000DA1281CFD9F1DB402EA4A6AFFFD0FFFE0C
:1000E00001020408102040800102040810200102CF
:1000F0000408102000000000250028002B00040444
:1001000004040404040402020202020203030303BF
:10011000030300101000FE0A06A7089500FFFE0E5C
:10012000FE0BFE1010201000FEAAAA0001800000A5
:100130000180004A51EA505A51C99E0001800000D6
:100140000180000001800055551010201000FEAA0B
:10015000AA00018000000180003993C252325F8AF8
:1001600052719380000001800000018000555510FD
:1001700010201000FEAAAA00018000000180003BB0
:10018000A5C1243119892471258000000180000057
:1001900001800055551010201000FEAAAA00018011
:1001A00000000180007BA5C1247919C12479258034
:1001B0000000018000000180005555101020100043
:1001C000FEAAAA000180000001800079BFC2487A1F
:1001D00049C24879898000000180000001800055F3
:1001E000551010201000FEAAAA0001800000018016
:1001F000007A4DC2527B53C2D67A4F8000000180F4
:10020000000001800055551010201000FEAAAA0021
:100210000180000001800031A5CA287A31CA28492E
:10022000A5800000018000000180005555101020BD
:100230001000FEAAAA000180000001800073D1CA4C
:100240001073D1CA1073DF800000018000000180AC
:100250000055551010201000FEAAAA0001800000D1
:100260000180001E3991401E3191081E71800000EE
:100270000180000001800055551010201000FEAADA
:10028000AA000180000001800022F9A2203E21A2E4
:1002900020222180000001800000018000555510BF
:1002A00010201000FEAAAA0001800000018000209A
:1002B000F9A08020F9A0803E81800000018000002C
:1002C00001800055551010201000FEAAAA000180E0
:1002D000000001800022F9A2202221942008218020
:1002E0000000018000000180005555101020100012
:1002F000FEAAAA00018000000180003EF9A0803E15
:10030000F9A080208180000001800000018000555C
:10031000551010201000FEAAAA00018000000180E4
:10032000001EF1A08820F1A0901E898000000180AD
:10033000000001800055551010201000FEAAAA00F0
:10034000018000000180001E71A0881C8982883C09
:1003500071800000018000000180005555101020C0
:100360001000FEAAAA00018000000180001EF9A072
:10037000201C2182203CF9800000018000000180C7
:100380000055551010201000FEAAAA0001800000A0
:10039000018000391DA510251DA51039DD80000044
:1003A0000180000001800055551010201000FEAAA9
:1003B000AA00018000000180007189CA184A09CA98
:1003C00008719D80000001800000018000555510DB
:1003D00010201000FEAAAA00018000000180007118
:1003E00099CA044A09CA10719D800000018000006A
:1003F00001800055551010201000FEAAAA000180AF
:1004000000000180007199CA044A19CA04719980D8
:1004100000000180000001800055551010201000E0
:10042000FEAAAA00018000000180007185CA0C4A62
:1004300015CA1C71858000000180000001800055F4
:10044000551010201000FEAAAA00018000000180B3
:10045000004993EA546A59DBD44A53800000018072
:10046000000001800055551010201000FEAAAA00BF
:10047000018000000180003453C29A311789127143
:1004800013800000018000000180005555101020ED
:100490001000FEAAAA00018000000180007BB9C103
:1004A000247939C12479398000000180000001805D
:1004B0000055551010201000FEAAAA00018000006F
:1004C0000180003325C4B447ADC4A434A580000026
:1004D0000180000001800055551010201000FEAA78
:1004E000AA00018000000180003E89A0D83EA9A09A
:1004F000883E898000000180000001800055551071
:1005000010201000FEAAAA00018000000180003A1D
:100510005DC252325D8A52719D80000001800000F0
:1005200001800055551010201000FEAAAA0001807D
:10053000000001800079CFC2107991C0507B8F807C
:1005400000000180000001800055551010201000AF
:10055000FEAAAA00018000000180001E7190801E8A
:1005600061901010E18000000180000001800055C2
:10057000551010201000FEAAAA0001800000018082
:10058000000E719080166192100EE18000000180D3
:10059000000001800055551010201000FEAAAA008E
:1005A000018000000180001C7192801C6194101277
:1005B000E1800000018000000180005555101020EE
:1005C0001000FEAAAA0001800000018000127192B2
:1005D00080126192100CE180000001800000018017
:1005E00000555500000008000E010A0A08040080AA
:1005F0008080808080800080800504040802088854
:10060000888888060A0A080100242424FC4848FC3B
:10061000909090070A0A080100107C9290701C12BA
:10062000927C10070A0A0801006294946810102C4A
:1006300052528C070A0A0801003844442830528A72
:10064000848C7201040408040880808080030C0CF0
:100650000803FF204040808080808080404020034D
:100660000C0C0802FF804040202020202020404029
:1006700080070707080101109254385492100707A9
:1006800007080101101010FE1010100204040803E6
:10069000FEC0404080040101080204F0020202088A
:1006A0000300C0C0060A0A08010004040810102054
:1006B00020408080060A0A0801003048848484842F
:1006C00084844830050A0A0802002060A020202007
:1006D000202020F8060A0A080100788484041820E3
:1006E000408080FC060A0A080100788484043804EB
:1006F00004848478060A0A080100081828488888B3
:10070000FC080808060A0A080100FC808080F8043A
:1007100004048478060A0A08010038408080F884BE
:1007200084848478060A0A080100FC040408080886
:1007300010101010060A0A08010078848484788456
:1007400084848478060A0A080100788484847C04FE
:1007500004040870020707080301C0C0000000C0BD
:10076000C00209090803FFC0C0000000C04040806B
:1007700005090908020008102040804020100806E2
:100780000505080102FC000000FC0509090801003C
:10079000804020100810204080060A0A08010078D6
:1007A000848404081010001010060A0A080100389A
:1007B0004494ACA4A4A49C403C060A0A080100305E
:1007C00048488484FC84848484060A0A080100F86A
:1007D000848484F884848484F8060A0A08010078F2
:1007E000848480808080848478060A0A080100F06E
:1007F0008884848484848488F0060A0A080100FCC2
:10080000808080F880808080FC060A0A080100FC55
:10081000808080F88080808080060A0A0801007845
:10082000848480809C84848C74060A0A0801008475
:10083000848484FC8484848484050A0A080200F881
:100840002020202020202020F8070A0A0801003E4E
:10085000080808080808888870060A0A0801008441
:100860008890A0C0C0A0908884060A0A0801008071
:100870008080808080808080FC060A0A08010084D5
:1008800084CCCCB4B484848484060A0A080100842D
:10089000C4C4A4A494948C8C84060A0A0801007829
:1008A000848484848484848478060A0A080100F895
:1008B000848484F88080808080070B0B0801FF7897
:1008C000848484848484B4CC7806060A0A080100EF
:1008D000F8848484F89088888484060A0A080100D1
:1008E00078848480601804848478070A0A080100E8
:1008F000FE101010101010101010060A0A08010047
:1009000084848484848484848478070A0A080100A7
:1009100082828244444428281010060A0A080100F2
:1009200084848484B4B4CCCC8484060A0A0801008C
:1009300084844848303048488484070A0A08010003
:1009400082824444281010101010060A0A08010080
:10095000FC0404081020408080FC030C0C0804FFF9
:10096000E080808080808080808080E0060A0A08A5
:10097000010080804020201010080404030C0C08A3
:1009800001FFE020202020202020202020E006035E
:10099000030801093048840701010801FFFE030331
:1009A0000308020A80402006080808010078840431
:1009B0007C84848C74060B0B080100808080B8C492
:1009C00084848484C4B80608080801007884808080
:1009D00080808478060B0B080100040404748C8466
:1009E0008484848C74060808080100788484FC8060
:1009F000808478050B0B08010018202020F82020A7
:100A000020202020060B0B0801FE047488888870C3
:100A10004078848478060B0B080100808080B8C47D
:100A2000848484848484050B0B08020020200060E9
:100A3000202020202020F8050D0D0801FE080800C8
:100A400018080808080808089060060B0B08010041
:100A50008080808890A0C0A0908884050B0B08023D
:100A60000060202020202020202020F807080808EF
:100A70000100EC929292929292920608080801006C
:100A8000B8C48484848484840608080801007884B7
:100A9000848484848478060A0A0801FEB8C48484A5
:100AA0008484C4B88080060A0A0801FE748C848499
:100AB00084848C740404060808080100B8C4848087
:100AC000808080800608080801007884806018040F
:100AD0008478050A0A080100202020F82020202020
:100AE00020180608080801008484848484848C7497
:100AF0000608080801008484844848483030070804
:100B000008080100829292929292926C060808085C
:100B100001008484483030488484060A0A0801FEB3
:100B200084848484844C3404047806080808010012
:100B3000FC040810204080FC030C0C0803FF6080BC
:100B400080404080804040808060010E0E0804FE9E
:100B50008080808080808080808080808080030C86
:100B60000C0802FFC020204040202040402020C030
:100B700007030308010862928C1010201000FEAADF
:100B8000AA000180000001800073D1CA104BD1CAB5
:100B90001073DF80000001800000018000555510B7
:100BA00010201000FEAAAA00018000000180007140
:100BB0009DCA5273D3C252425D8000000180000082
:100BC00001800055551010201000FEAAAA000180D7
:100BD0000000018000499DCA527A5DCA5049918047
:100BE0000000018000000180005555101020100009
:100BF000FEAAAA00018000000180007393CA52730C
:100C00009FCA12721380000001800000018000550D
:100C1000551010201000FEAAAA00018000000180DB
:100C2000004B93EA525B9FCA524B938000000180B5
:100C3000000001800055551010201000FEAAAA00E7
:100C40000180000001800074B9A6A425A5A4A474A5
:100C5000B98000000180000001800055551010206F
:100C60001000FEAAAA00018000000180004BD1EA1A
:100C7000105BD1CA104BDF800000018000000180B2
:100C80000055551010201000FEAAAA000180000097
:100C900001800039CDC212319F88527393800000C9
:100CA0000180000001800055551010201000FEAAA0
:100CB000AA000180000001800079CDC212799FC096
:100CC000527B938000000180000001800055551088
:100CD00010201000FEAAAA00018000000180004B35
:100CE0009DC9207919C9044939800000018000009C
:100CF00001800055551010201000FEAAAA000180A6
:100D0000000001800025DDA4843C85A48424998012
:100D100000000180000001800055551010201000D7
:100D2000FEAAAA000180000001800045CDC49044C5
:100D300089A884109980000001800000018000557E
:100D4000551010201000FEAAAA00018000000180AA
:100D500000721DCA127213C21243DD8000000180AE
:100D6000000001800055551010201000FEAAAA00B6
:100D7000018000000180007213CA127213C2124374
:100D8000CD8000000180000001800055551010202A
:100D90001000FEAAAA00018000000180000E218937
:100DA000200E218A2009218000000180000001809E
:100DB0000055551010201000FEAAAA000180000066
:100DC00001800039DDC202318D8850739F800000A0
:100DD0000180000001800055551010201000FEAA6F
:100DE000AA000180000001800039DDC202318D8837
:100DF00042739D8000000180000001800055551065
:100E000010201000FEAAAA000180000001800071DD
:100E1000CFCA104A0DCA0271DD80000001800000B7
:100E200001800055551010201000FEAAAA00018074
:100E300000000180007245CA4C7245C244418F8057
:100E400000000180000001800055551010201000A6
:100E5000FEAAAA0001800000018000725DCA4272F1
:100E60004DC250419F80000001800000018000556C
:100E7000551010201000FEAAAA0001800000018079
:100E8000003B9DC120311989047139800000018027
:100E9000000001800055551010201000FEAAAA0085
:100EA0000180000001800039D3C212421FC21239F2
:100EB000D3800000018000000180005555101020F3
:100EC0001000FEAAAA00018000000180002289B65D
:100ED000882AA9A2D8228980000001800000018010
:100EE0000055551010201000FEAAAA000180000035
:100EF0000180003B8DC252339F8A12721380000022
:100F00000180000001800055551010201000FEAA3D
:100F1000AA00018000000180007B8DC2527B9FC22D
:100F2000127A1380000001800000018000555510E6
:100F300010201000FEAAAA000180000001800039E4
:100F40008FC250324D8A42719D80000001800000A6
:100F500001800055551010201000FEAAAA00018043
:100F60000000018000339BC42225A394A2639B80D0
:100F70000000018000000180005555101020100075
:100F8000FEAAAA000180000001800039DDC20832FB
:100F9000098A0871DD800000018000000180005591
:100FA000551010201000FEAAAA0001800000018048
:100FB0000039DDC2084189C0483B9D8000000180A6
:100FC000000001800055551010201000FEAAAA0054
:100FD000018000000180000EF990200C2182201C6D
:100FE0002180000001800000018000555510102074
:100FF0001000FEAAAA000180000001800031CFCAC3
:10100000104991C850338F8000000180000001809A
:101010000055551010201000FEAAAA000180000003
:101020000180001C8992D81CA9908810898000003A
:101030000180000001800055551010201000FEAA0C
:10104000AA0001800000018000338FCA507B91CA42
:10105000104A0F80000001800000018000555500FB
:10106000000008000E010A0A080400808000808049
:101070008080808080070A0A08010010107C92900E
:1010800090927C1010070A0A0801001C202020F80A
:101090002020207CC20608080801018448784848BE
:1010A000784884070A0A08010082442810FE10FECE
:1010B000101010010A0A080400808080800000805F
:1010C000808080060A0A0801007884807884847809
:1010D00004847804020208020C9090080A0A0800AE
:1010E000003C4299A5A1A1A599423C050707080229
:1010F00005700878887800F806090908010024249A
:1011000048489048482424060404080100FC0404CC
:10111000041010201000FEAAAA000180003A63C249
:101120005433C98A48724980000001800003C1809D
:1011300000000180005555080A0A0800003C42B929
:10114000A5A5B9A9A5423C06010108010BFC0304B1
:101150000408020A40A0A040070909080101101074
:1011600010FE10101000FE05070708020570880821
:10117000708080F8050707080205708808700888E5
:101180007003030308030A204080080A0A0800FECF
:1011900042424242424266594080060C0C0801FF1E
:1011A0007CF4F4F4F47414141414141C02020208F1
:1011B0000304C0C00302020802FE20C003070708A0
:1011C00002052060A02020202005070708020570E6
:1011D0008888887000F8060909080100909048483E
:1011E0002448489090060A0A08010044C448505018
:1011F000242C549C84060A0A08010044C448505018
:10120000283444889C060A0A080100C4244830D0C7
:10121000242C549C84060A0A0801001010001010A7
:101220006084848478060E0E080100601800003087
:1012300048488484FC84848484060E0E08010018C7
:101240006000003048488484FC84848484060E0E48
:10125000080100304800003048488484FC848484BD
:1012600084060E0E0801006498000030484884840B
:10127000FC84848484060E0E080100484800003077
:1012800048488484FC84848484060E0E080100305F
:101290004830003048488484FC84848484070A0AE7
:1012A0000801003E509090FE909090909E060C0C8D
:1012B0000801FE78848480808080848478106006B1
:1012C0000E0E08010060180000FC808080F880800D
:1012D0008080FC060E0E08010018600000FC808073
:1012E00080F880808080FC060E0E080100304800E7
:1012F00000FC808080F880808080FC060E0E080153
:101300000048480000FC808080F880808080FC05D8
:101310000E0E08020060180000F820202020202077
:101320002020F8050E0E08020030C00000F8202032
:10133000202020202020F8050E0E080200609000DA
:1013400000F82020202020202020F8050E0E080282
:101350000090900000F82020202020202020F80776
:101360000A0A08000078444242F2424242447806A7
:101370000E0E0801006498000084C4C4A4A49494D0
:101380008C8C84060E0E080100601800007884849E
:1013900084848484848478060E0E0801001860001A
:1013A0000078848484848484848478060E0E080102
:1013B000003048000078848484848484848478069F
:1013C0000E0E08010064980000788484848484846C
:1013D000848478060E0E0801004848000078848452
:1013E0008484848484847806050508010284483056
:1013F0004884060C0C0801FF0474888C9494A4A4FF
:10140000C444B880060E0E080100601800008484F1
:101410008484848484848478060E0E080100186015
:10142000000084848484848484848478060E0E0876
:101430000100304800008484848484848484847817
:10144000060E0E08010048480000848484848484C9
:1014500084848478070E0E080100186000008282E0
:101460004444281010101010060B0B080100808057
:10147000F088848488F0808080060A0A0801007061
:10148000888890B0888484A498060C0C08010060B9
:101490001800007884047C84848C74060C0C080189
:1014A00000186000007884047C84848C74060C0C22
:1014B000080100304800007884047C84848C740621
:1014C0000C0C080100649800007884047C84848CEF
:1014D00074060C0C080100484800007884047C84E1
:1014E000848C74060D0D08010030483000007884AB
:1014F000047C84848C740708080801007C92127EA6
:101500009090927C060A0A0801FE78848080808090
:1015100084781060060C0C080100601800007884C4
:1015200084FC80808478060C0C08010018600000A0
:10153000788484FC80808478060C0C080100304894
:101540000000788484FC80808478060C0C080100FC
:1015500048480000788484FC80808478050C0C085E
:101560000200C030000060202020202020F8050C60
:101570000C08020030C0000060202020202020F84D
:10158000050C0C0802006090000060202020202044
:1015900020F8050C0C08020090900000602020202C
:1015A000202020F8060C0C08010064182844047C54
:1015B000848484848478060C0C08010064980000FC
:1015C000B8C4848484848484060C0C0801006018E8
:1015D00000007884848484848478060C0C080100DC
:1015E000186000007884848484848478060C0C0855
:1015F0000100304800007884848484848478060C58
:101600000C080100649800007884848484848478C1
:10161000060C0C0801004848000078848484848407
:101620008478060707080101300000FC000030063E
:101630000A0A0801FF04788C9494A4A4C478800654
:101640000C0C080100601800008484848484848C5D
:1016500074060C0C080100186000008484848484E3
:10166000848C74060C0C08010030480000848484CB
:101670008484848C74060C0C0801004848000084A3
:1016800084848484848C74060E0E0801FE18600025
:101690000084848484844C34040478050C0C08028F
:1016A000FE8080F088888890A0C0808080060E0E22
:1016B0000801FE4848000084848484844C34040477
:1016C0007800BA17A81711241FBECFEFD8E0DEBFED
:1016D000CDBF11E0A0E0B1E0E4E6F7E302C0059081
:1016E0000D92AA3BB107D9F723E0AAEBB1E001C004
:1016F0001D92AF35B207E1F71BE0C2E6DBE004C0A4
:101700002197FE010E941119C136D107C9F70E9425
:10171000A0150C94A51B0C940000833081F028F4D4
:10172000813099F08230A1F008958730A9F0883097
:10173000B9F08430D1F4809180008F7D03C0809116
:1017400080008F7780938000089584B58F7702C0E2
:1017500084B58F7D84BD08958091B0008F7703C0DC
:101760008091B0008F7D8093B0000895CF93DF9378
:10177000282F30E0F901E657FF4F8491F901E0523C
:10178000FF4FD491F901E250FF4FC491CC2391F067
:1017900081110E948D0BEC2FF0E0EE0FFF1FE0583F
:1017A000FF4FA591B491EC91ED2381E090E021F4FD
:1017B00080E002C080E090E0DF91CF910895CF9269
:1017C000DF92EF92FF920F931F93CF93DF936C0101
:1017D0007A018B01C0E0D0E0CE15DF0589F0D80199
:1017E0006D918D01D601ED91FC910190F081E02D7C
:1017F000C6010995892B11F47E0102C02196ECCF18
:10180000C701DF91CF911F910F91FF90EF90DF9073
:10181000CF900895FC01918D828D981761F0828D93
:10182000DF01A80FB11D5D968C91928D9F5F9F7314
:10183000928F90E008958FEF9FEF0895FC01918DB6
:10184000828D981731F0828DE80FF11D858D90E023
:1018500008958FEF9FEF0895FC01918D228D892FC0
:1018600090E0805C9F4F821B91098F7399270895A8
:101870008DEC91E00E942C0C21E0892B09F420E0F2
:10188000822F0895FC01848DDF01A80FB11DA35A9A
:10189000BF4F2C91848D90E001968F739927848F90
:1018A000A689B7892C93A089B1898C9180648C9387
:1018B000938D848D981306C00288F389E02D808172
:1018C0008F7D80830895EF92FF920F931F93CF93A4
:1018D000DF93EC0181E0888F9B8D8C8D981305C080
:1018E000E889F989808185FD24C0F62E0B8D10E0F2
:1018F0000F5F1F4F0F731127E02E8C8DE8120CC065
:101900000FB607FCFACFE889F989808185FFF5CF0A
:10191000CE010E94420CF1CF8B8DFE01E80FF11D2C
:10192000E35AFF4FF0820B8FEA89FB898081806246
:1019300007C0EE89FF896083E889F9898081806426
:10194000808381E090E0DF91CF911F910F91FF9014
:10195000EF900895CF93DF93EC01888D8823C9F031
:10196000EA89FB89808185FD05C0A889B9898C91A8
:1019700086FD0FC00FB607FCF5CF808185FFF2CF43
:10198000A889B9898C9185FFEDCFCE010E94420CC8
:10199000E7CFDF91CF91089580E090E0892B29F087
:1019A0000E94380C81110C94000008958F929F9230
:1019B000AF92BF92CF92DF92FF920F931F93CF937C
:1019C000DF9300D0CDB7DEB76C018B01F42E490157
:1019D00020E1421709F467C0241700F13AE04317E9
:1019E00029F18FE0481369C041E0C6010E94CF137E
:1019F00040E0B801C6010E94C61341E8B801C60123
:101A00000E94BD13F4014081B801C6010E94BD13BC
:101A100040E0B801C6010E94CF1308C1A1E14A17F6
:101A200009F444C0B5E14B1791F047C0DB011496AF
:101A3000ED91FC91159720E030E042E061E00995DE
:101A40004AEB50E0B801C6010E94D81336C0FB0132
:101A5000A280B38042EB50E00E94D813D5011496C7
:101A60004C91406BB801C6010E94BD1341E0B80122
:101A7000C6010E94C613F50126813781D80114964C
:101A8000ED91FC911597D50115964C9166E0C60134
:101A90000995811102C080E0CAC040E0B801C601CA
:101AA0000E94CF130AC049EA50E002C04EE950E05C
:101AB000B801C6010E94D813B9C0D80112960D9181
:101AC0001C911397B2E3FB1609F474C0BF15B8F06C
:101AD000E5E1FE1609F47BC0F7E1FF1609F48DC0BD
:101AE00024E1F212A3C0D8011696ED91FC9117974C
:101AF00015968C919F01280F311DC90160C036E4F5
:101B0000F31609F48AC087E4F81609F48AC0ABE337
:101B1000FA128CC0F40181819381913029F09330C5
:101B200031F4482F885004C048E0480F01C0482FC6
:101B300021E0D80113963C91381708F420E031E0F9
:101B4000F8015281451708F430E051E0481708F0D9
:101B500050E0822F852B382319F4252309F466C021
:101B6000D4011296FC90913051F030F0923049F04F
:101B7000933051F42FEF09C020E031E007C021E09D
:101B800004C020E03FEF02C020E030E0F7FE08C0D4
:101B9000B401C8012A8339830E946A1439812A81D9
:101BA000F4018081830F80838181820F8183FF0C08
:101BB00069F73CC0B401C8010E946A1437C0119291
:101BC000E817F907E1F7C8010E94B6132FC0C80152
:101BD0000E94A013882309F45ECFD8011696ED91D8
:101BE000FC91179715968C919F01280F311DC90103
:101BF0001192E817F907E1F719C0D4011C92F80116
:101C0000828111968C9311978581815012968C93C5
:101C10001297838113968C9309C0D80115968C91E5
:101C200003C0D80111968C91F401808381E00F905C
:101C30000F90DF91CF911F910F91FF90DF90CF9088
:101C4000BF90AF909F908F9008950E940E1B0F93AE
:101C50001F93CF93DF93EC0188819981009729F03E
:101C60002A813B812617370788F48B016F5F7F4FEE
:101C70000E94441A009761F0998388831B830A832A
:101C80002C813D81232B11F4FC01108281E001C0E5
:101C900080E0DF91CF911F910F910895CF92DF9255
:101CA000EF92FF920F931F93CF93DF93CDB7DEB7E1
:101CB00028970FB6F894DEBF0FBECDBF8C01CB01C5
:101CC0004AE09E012F5F3F4F6901B9010E94231B2B
:101CD000F60101900020E9F73197EC19FD09D801D0
:101CE0001496ED90FC9015973097B9F0EE0EFF1E0C
:101CF000B701C8010E94270E882381F0F8012081D6
:101D0000318184819581B601820F931F0E941C1B33
:101D1000D8011596FC92EE92149781E028960FB6A2
:101D2000F894DEBF0FBECDBFDF91CF911F910F9111
:101D3000FF90EF90DF90CF9008953F924F925F9287
:101D40006F927F928F929F92AF92BF92CF92DF92CB
:101D5000EF92FF920F931F93CF93DF93EC01062F27
:101D6000DCACCBAC5C0184E0A80EB11CE98DFA8D33
:101D7000C5010995182FE884F984C7010E949315BD
:101D8000982E888599850E949615682EE1E09E120E
:101D900003C02FE0922E02C099249A9488859985D9
:101DA0000E948915882E888599850E948515782E30
:101DB000888599850E948D15013638F0009729F0A5
:101DC000E80EF91E91E6892E10C0888599850E943B
:101DD0009015013438F0009729F0E80EF91E81E4DF
:101DE000882E03C0F1E1EF0EF11C701630F41C8A4E
:101DF0001F8A188E1D8A1E8A9AC07814C0F3262D59
:101E000030E0F70184918F3F21F4FFEFEF1AFF0AD2
:101E100043C0801238C0888599850E949315970128
:101E20002F5F3F4FF701882311F0823091F48491A6
:101E30008F8BF9012491288FF7013396E491EC8B75
:101E4000F7013496E491ED8BF7013596E491EE8B32
:101E500016C08491982F9F7092509E8B82958F70A0
:101E60008D8BF9012491822F8F70888F22952F708E
:101E70002F8BF7013296E491E295EF70EC8BE11431
:101E8000F10479F454C0F7013296E491E921C901D3
:101E90008E0F911DE80EF91E871409F4A8CF8394C4
:101EA000B0CF888599850E949615882E4F88988C8A
:101EB0005D885C0CD9188E89D81A1D0D092D242D2A
:101EC000412F652DC5010E944814882371F1E80C4B
:101ED000F11C87E0840D482E469446944694312E9A
:101EE000390C4E01F0E28F0E911C642C712C1315ED
:101EF000E1F0052D67018C2D8E19841590F4F60103
:101F000084916E817F8108A319A31BA28AA39401E7
:101F10004BE3C5010E948014FFEFCF1ADF0A085F70
:101F2000EACFE60CF71C1F5FE2CF8C8901C080E08E
:101F30002BAD082E000C990B820F911D8BAF81E009
:101F400090E0DF91CF911F910F91FF90EF90DF9084
:101F5000CF90BF90AF909F908F907F906F905F9049
:101F60004F903F900895FC01E60FF11D849190E0A1
:101F7000982F88273196E4918E0F911D08951F9315
:101F8000CF93DF93282F30E0F901E657FF4F84917C
:101F9000F901E052FF4FD491F901E250FF4FC49193
:101FA000CC23C9F0162F81110E948D0BEC2FF0E08D
:101FB000EE0FFF1FEC50FF4FA591B4918FB7F8942F
:101FC000111105C09C91ED2FE095E92302C0EC9121
:101FD000ED2BEC938FBFDF91CF911F910895CF939D
:101FE000DF9390E0FC01E052FF4F2491FC01E250AE
:101FF000FF4F8491882361F190E0880F991FFC01C5
:10200000EA58FF4FC591D491FC01EC50FF4FA591C8
:10201000B491611109C09FB7F894888120958223FB
:102020008883EC912E230BC0623061F49FB7F89443
:102030003881822F809583238883EC912E2B2C93DB
:102040009FBF06C08FB7F894E8812E2B28838FBFDF
:10205000DF91CF9108953FB7F8948091C30190919B
:10206000C401A091C501B091C60126B5A89B05C0C9
:102070002F3F19F00196A11DB11D3FBFBA2FA92F07
:10208000982F8827820F911DA11DB11DBC01CD0184
:1020900042E0660F771F881F991F4A95D1F7089570
:1020A0001F920F920FB60F9211242F933F938F938D
:1020B0009F93AF93BF938091BF019091C001A09176
:1020C000C101B091C2013091BE0123E0230F2D3731
:1020D00020F40196A11DB11D05C026E8230F02962C
:1020E000A11DB11D2093BE018093BF019093C0013B
:1020F000A093C101B093C2018091C3019091C4012A
:10210000A091C501B091C6010196A11DB11D80939A
:10211000C3019093C401A093C501B093C601BF91C0
:10212000AF919F918F913F912F910F900FBE0F9084
:102130001F901895EF92FF920F931F93CF93DF9309
:10214000EC01198218821B821A821D821C82611581
:10215000710549F18B01FB0101900020E9F73197EE
:102160007F01E61AF70AB7010E94270E28813981FC
:1021700081110DC02115310519F0C9010E94AC195A
:10218000198218821D821C821B821A820CC0FD8259
:10219000EC82B801C901DF91CF911F910F91FF909F
:1021A000EF900C941C1BDF91CF911F910F91FF902A
:1021B000EF9008956115710579F0FB010190002001
:1021C000E9F73197AF01461B570BDC01ED91FC910C
:1021D0000280F381E02D099480E090E008950F9350
:1021E0001F93CF93DF93EC01E881F981DB01149613
:1021F0004D915C9115976D917C910280F381E02D5A
:1022000009958C0160E571E0CE010E94DA10800F23
:10221000911FDF91CF911F910F9108951F920F92FF
:102220000FB60F9211242F933F934F935F936F93A9
:102230007F938F939F93AF93BF93EF93FF938DEC17
:1022400091E00E94420CFF91EF91BF91AF919F915D
:102250008F917F916F915F914F913F912F910F904F
:102260000FBE0F901F9018951F920F920FB60F92EE
:1022700011242F938F939F93EF93FF93E091DD01B0
:10228000F091DE018081E091E301F091E40182FDB3
:1022900012C090818091E6018F5F8F732091E701DA
:1022A000821751F0E091E601F0E0E353FE4F958F85
:1022B0008093E60101C08081FF91EF919F918F9102
:1022C0002F910F900FBE0F901F90189580E00895EA
:1022D00008952EE93FE0009729F0F9013197F1F7D1
:1022E0000197F9CF089550915A0360915903409195
:1022F000580330915703A0915503B0915603E091D4
:102300005303F09154039FB790935203F89498E0CD
:102310002C9187FF02C0252B01C026232C932081FE
:10232000242B2083880F208123232083915081F741
:10233000809152038FBF0895282F30E0F901E250B9
:10234000FF4FE491F0E0EE0FFF1FEC50FF4F85913F
:102350009491909356038093550370E0FB01E250F3
:10236000FF4F9491E92FF0E0EE0FFF1FEC50FF4F6D
:10237000859194919093540380935303F901E05213
:10238000FF4F249120935A03FB01E052FF4F6491C9
:1023900060935803609560935703209520935903E9
:1023A0000895DC011696ED91FC91179712968C9189
:1023B000481B477081E090E001C0880F4A95EAF71A
:1023C000E60FF11D3081222311F0832B02C080958E
:1023D000832380830895860F911DFC0183A18F3F85
:1023E00019F0642F0C94BF0F0895CF92DF92EF92F3
:1023F000FF920F931F93CF93DF931F92CDB7DEB75A
:102400006C018901862F90E0FC013197E730F105DE
:1024100008F05EC0EC5CFF4F0C94111986010D5D55
:102420001F4F760180E3E80EF11CF80180818F3F99
:1024300041F061E00E94EF0F61E0F80180810E94AD
:10244000BF0F0F5F1F4F0E151F0579F740E064E0C7
:10245000C6010E94EB1140E065E012C0F60183A1C5
:102460008F3FB1F160E031C0411103C041E062E053
:102470002CC040E064E0C6010E94EB1140E062E045
:10248000C6010E94EB11F60167A180A50E949C1174
:102490001FC0842F0E9473111BC04423C9F0F80190
:1024A00081918F0149830E94731149814150F5CF79
:1024B000442371F0F801849149830E9473110F5FE6
:1024C0001F4F49814150F4CF61E0C6010E94EB11DA
:1024D00081E00F90DF91CF911F910F91FF90EF90CE
:1024E000DF90CF900895EF92FF920F931F93CF93B9
:1024F000DF931F92CDB7DEB780910E0190910F014F
:102500009093290180932801EAE6F2E000E111E0CE
:10251000D801819191918D939D9382E0E238F807E3
:10252000C1F7E12CF12CF80161918F01C70169839A
:102530000E94581B6981681719F0C7010E94601B2F
:10254000FFEFEF1AFF0A8AE1E816F10461F70F9036
:10255000DF91CF911F910F91FF90EF9008958F928F
:102560009F92AF92BF92CF92DF92EF92FF920E9422
:102570002B104B015C0188ECC82ED12CE12CF12CE6
:102580000E942B10DC01CB0188199909AA09BB090B
:10259000883E9340A105B10558F021E0C21AD10848
:1025A000E108F10888EE880E83E0981EA11CB11C9A
:1025B000C114D104E104F10419F7FF90EF90DF900A
:1025C000CF90BF90AF909F908F9008954F925F9261
:1025D0006F927F928F929F92AF92BF92CF92DF9233
:1025E000EF92FF920F931F93CF93DF93CDB7DEB798
:1025F000A1970FB6F894DEBF0FBECDBF8C016A0164
:102600007B0177FF2FC0DC01ED91FC910190F081FF
:10261000E02D6DE209955C0122273327A9012C19D1
:102620003D094E095F0919A2FE01B1967F019AE0AA
:10263000492E512C612C712CCA01B901A3019201C0
:102640000E94EF18605DD7016E937D012115310561
:102650004105510589F7BD01C8010E94DA108A0DB4
:102660009B1D1EC09A01AB0119A2FE01B1967F010C
:102670008AE0882E912CA12CB12CCA01B901A501A8
:1026800094010E94EF18605DD7016E937D012115C2
:1026900031054105510589F7BD01C8010E94DA10D5
:1026A000A1960FB6F894DEBF0FBECDBFDF91CF91DC
:1026B0001F910F91FF90EF90DF90CF90BF90AF9060
:1026C0009F908F907F906F905F904F900895EF92C2
:1026D000FF920F931F93CF93DF9300EC12E0C0E1C2
:1026E000E12CF12CD8E08091CB019091CC01E8163F
:1026F000F90651F41092BD02C093BE0260E971E088
:1027000082E892E00E94DA10D093BD02C093BE022C
:10271000F801448155816081718182E892E00E94D4
:10272000DF0BFFEFEF1AFF0ACD5E0A5F1F4FC934C0
:10273000D1F6DF91CF911F910F91FF90EF90089507
:10274000FC0180819281980F92832181921760F41D
:1027500094819F5F94839381890F821710F08FEF8C
:10276000820F838381E0089580E00895FC01128246
:1027700080818150838314820895DB011496ED914A
:10278000FC91159720E030E065E00994DB01149698
:10279000ED91FC91159720E030E062E00994DB01B7
:1027A0001496ED91FC91159720E030E063E00994D8
:1027B000CF92DF92EF92FF920F931F93CF93DF930D
:1027C0008C017B016A0180E0F601C49181110BC08C
:1027D000CF3F09F44CC04C2FB701C8010E94BD1374
:1027E000811143C049C0CF3F11F44FEFF5CFCE3F29
:1027F00009F444C0C03FC8F5C03E38F04C2F4F70BC
:10280000B701C8010E94C61330C0C03D38F04C2F3C
:102810004F70B701C8010E94CF1327C0C03CF8F029
:10282000D7011496ED91FC91159720E030E040E03F
:1028300064E0C8010995C295C07FCE5FD0E0CE01AB
:102840000E946911D7011496ED91FC91159720E033
:1028500030E041E064E0C8010995CE0104C0C7FD45
:1028600004C08C2F90E00E94691180E001C081E0DB
:10287000BFEFCB1ADB0AA8CF80E001C081E0DF9177
:10288000CF911F910F91FF90EF90DF90CF9008951F
:102890000F93FC010150040F84A996A9941718F016
:1028A000081728F402C0081750F0041740F421500C
:1028B000260F83A995A9961720F4281720F480E005
:1028C00007C0281720F481E0261710F0F8CF81E028
:1028D0000F910895FB014181DC0112962C91129712
:1028E000421768F013962C911397241740F06081DB
:1028F00015962C91621718F424810C94D111089527
:10290000DB01ED91FC9109940F93CF93C82F01E067
:1029100028E04FE1682F86E892E00E94481488235F
:10292000B9F06091880270918902C093A2028FE190
:102930008093A3021092A5028FEF8093A40222EA53
:1029400032E04BE386E892E0CF910F910C94801433
:10295000CF910F9108950F931F93CF93DF9390938F
:10296000CA018093C901009709F45FC081309105C5
:1029700049F51092BD028AE08093BE0262E971E0DF
:1029800082E892E00E94DA101092BD02CAE1C09380
:10299000BE0260EA71E082E892E00E94DA1084E60A
:1029A0008093BD02C093BE0240910E0150910F0171
:1029B000052E000C660B770B82E892E00E94E6126F
:1029C00084E629C0029769F51092BD028AE08093DF
:1029D000BE026EEA71E082E892E00E94DA100AE636
:1029E00012E0C0E0DAE1C093BD02D093BE02F8016C
:1029F000419151918F01052E000C660B770B82E8F7
:102A000092E00E94E612C85FC03669F78091C70164
:102A1000880F880F880FDF91CF911F910F910C9431
:102A200084141092CA011092C901DF91CF911F91B5
:102A30000F910C946713EF92FF920F931F93CF9314
:102A4000DF931F92CDB7DEB78C01DC011296ED90BB
:102A5000FC901397D196ED91FC91D29782E0099565
:102A600020E030E04AE0B701C8010E948014F82E4F
:102A7000D801D196ED91FC91D29783E00995D801C8
:102A8000D196ED91FC91D29780E00995FF20A1F1BC
:102A9000F801628173819E012F5F3F4F46E4C801B8
:102AA0000E9480148981D8018C9312966D917C913B
:102AB00013979E012F5F3F4F47E4C8010E94801487
:102AC0008981F80181836281738120E030E048E4EC
:102AD000C8010E948014D8011B968C931B97980103
:102AE0002D5C3F4F12966D917C91139747E1C80181
:102AF0000E94801481E001C080E00F90DF91CF91AF
:102B00001F910F91FF90EF9008950B96FC01849117
:102B100008950A96FC018491089568E00C94B30F1F
:102B200066E00C94B30FFC01849108950E94931504
:102B3000882321F0823011F083E0089586E0089523
:102B4000CF93DF9300D000D000D0CDB7DEB778941C
:102B500084B5826084BD84B5816084BD85B58260A2
:102B600085BD85B5816085BD80916E008160809353
:102B70006E001092810080918100826080938100BC
:102B800080918100816080938100809180008160CC
:102B9000809380008091B10084608093B100809127
:102BA000B00081608093B00080917A00846080934F
:102BB0007A0080917A00826080937A0080917A0016
:102BC000816080937A0080917A00806880937A0097
:102BD0001092C10060E083E00E94EF0F60E082E0AD
:102BE0000E94EF0F8091BC019091BD010E94AB1437
:102BF000E091DD01F091DE0182E08083E091D90176
:102C0000F091DA011082E091DB01F091DC018FECB0
:102C100080831092E501E091E101F091E20186E00C
:102C20008083E091DF01F091E00180818061808309
:102C3000E091DF01F091E001808188608083E09184
:102C4000DF01F091E001808180688083E091DF0105
:102C5000F091E00180818F7D808363E571E08DECF0
:102C600091E00E94DA1062E571E0CE0101960E94C7
:102C70009A100AE612E0F801619171918F01CE017C
:102C800001960E944E0EF2E002381F07A1F7BE0126
:102C90006F5F7F4F8DEC91E00E94EF1089819A81E8
:102CA0000E94AC1911E083E00E94B60B7C0182E027
:102CB0000E94B60B2091C9013091CA013093BD0129
:102CC0002093BC01019709F04DC02130310559F422
:102CD0001092BD011092BC011092CA011092C9015C
:102CE0000E9467133DC02230310509F002C12091D6
:102CF000C7013091C8012F5F3F4F3093C801209327
:102D0000C7012C30310561F51092CA011092C9013A
:102D10001092C8011092C70162E571E0CE010196E0
:102D20000E949A109AE6C92E92E0D92EF60161917E
:102D300071916F01CE0101960E944E0EF2E8CF16FE
:102D4000F2E0DF0699F7BE016F5F7F4F8DEC91E0F7
:102D50000E94EF1089819A810E94AC190E9473121F
:102D60000E94AF1281E0E816F10409F04DC0809195
:102D7000BC019091BD01009791F48091BA019091AE
:102D8000BB010196833091052CF49093BB01809395
:102D9000BA011BC01092BB011092BA0116C0019774
:102DA000B1F420910E0130910F012F5F3F4F2A3077
:102DB00031052CF430930F0120930E0104C0F092E2
:102DC0000F01E0920E010E9473120E94AF128091D7
:102DD000BC019091BD010297B9F4E091C701F09157
:102DE000C801EE0FFF1FE659FD4F808191810196CA
:102DF0008A3091051CF49183808302C01182108275
:102E00000E9473120E94AF128091BA019091BB018F
:102E10009093CC018093CB018091BF02811106C0B9
:102E20001093BF0286E892E00E941B15E090880292
:102E3000F0908902E091B702F091B80282E0099522
:102E4000E091B702F091B80281E0099520E030E00E
:102E500044E1B70186E892E00E94801429EB32E059
:102E600047E1B70186E892E00E948014E091B70242
:102E7000F091B80280E009958091C9019091CA0152
:102E80000E94AB14E0919402F0919502309719F0F2
:102E900086E892E00995E0908802F0908902E0913E
:102EA000B702F091B80282E00995E091B702F09183
:102EB000B80281E0099520E030E045E1B70186E8FD
:102EC00092E00E948014082F882341F029EB32E021
:102ED00047E1B70186E892E00E948014E091B702D2
:102EE000F091B80280E009950111C6CF0E94CC0C88
:102EF000DACE232B41F58091BA019091BB01019666
:102F00009093BD018093BC016CE571E08DEC91E084
:102F10000E94DA104091BC015091BD01052E000CB9
:102F2000660B770B8DEC91E00E94E61260E571E094
:102F30008DEC91E00E94DA108091BC019091BD016E
:102F40000E94AB140DCFEA94EF2809F05DCF3FCF7C
:102F5000CF93DF93C0ECD2E08C859D850E94AC19A5
:102F60008E819F810E94AC1988819981DF91CF91D8
:102F70000C94AC19EF92FF920F931F93CF93DF93B2
:102F80001092D0011092CF0188EE93E0A0E0B0E063
:102F90008093D1019093D201A093D301B093D40137
:102FA00084E391E09093CE018093CD0185EC90E095
:102FB0009093DA018093D90184EC90E09093DC0146
:102FC0008093DB0180EC90E09093DE018093DD0143
:102FD00081EC90E09093E0018093DF0182EC90E03F
:102FE0009093E2018093E10186EC90E09093E401FC
:102FF0008093E3011092E6011092E7011092E8013C
:103000001092E901109285021092840284E491E00A
:1030100090938302809382021092BD021092BE02AE
:103020001092BF0210928B0210928A0210928D02AF
:1030300010928C0210928F0281E080938E0282E2C5
:10304000809390021092950210929402E9EAF2E0C5
:103050009FEF8EE08E0F91938E13FDCF81E08093D2
:10306000A60226E631E130939C0220939B028093D6
:103070009D0210929E0210929F0280E48093A00213
:103080001092A10288E691E19093B8028093B70272
:1030900088E091E0909389028093880289E0809390
:1030A000AD028AE08093AE028BE08093AB028CE0AD
:1030B0008093AA028FEF8093A90286E892E00E9493
:1030C0001B158CE491E0909383028093820280919F
:1030D0008A0290918B028251914009F445C082E1AD
:1030E00091E090938B0280938A0280919D028111DE
:1030F00008C0E7E1F1E0E491E0939E02EEE1F1E047
:1031000011C0813041F4E1E2F1E0E491E0939E02EC
:10311000E2E2F1E007C0EFE1F1E0E491E0939E022A
:10312000E0E2F1E0E491E0939F0280919E02082E9C
:10313000000C990B20919F02821B910927FD93950A
:103140002091A002203441F0829FC001112426E08A
:10315000969587952A95E1F78093A10286E691E1FD
:1031600090939C0280939B0200E111E07801C0E003
:10317000D0E0CE010E94581BD7018D937D0121968E
:10318000CA31D105B1F7EAE6F2E0D8018D919D91FF
:103190008D0181939193B1E008321B07B1F78091C3
:1031A00028019091290190930F0180930E016AE705
:1031B00071E080EC92E00E949A1063E871E086EC86
:1031C00092E00E949A1069E871E08CEC92E0DF9145
:1031D000CF911F910F91FF90EF900C949A10A1E264
:1031E0001A2EAA1BBB1BFD010DC0AA1FBB1FEE1F81
:1031F000FF1FA217B307E407F50720F0A21BB30BCC
:10320000E40BF50B661F771F881F991F1A9469F747
:1032100060957095809590959B01AC01BD01CF01A3
:103220000895EE0FFF1F0590F491E02D0994CF93C0
:10323000DF938230910510F482E090E0E0915D032D
:10324000F0915E0320E030E0C0E0D0E0309711F173
:103250004081518148175907C0F04817590761F458
:1032600082819381209719F09B838A832BC090934E
:103270005E0380935D0326C02115310519F04217C6
:10328000530718F49A01BE01DF01EF010280F381B8
:10329000E02DDCCF2115310509F1281B390B243035
:1032A000310590F412968D919C91139761157105DB
:1032B00021F0FB019383828304C090935E0380938B
:1032C0005D03FD01329644C0FD01E20FF31F8193BF
:1032D0009193225031092D933C933AC020915B0386
:1032E00030915C03232B41F420912C0130912D016E
:1032F00030935C0320935B0320912A0130912B01D2
:103300002115310541F42DB73EB740912E01509162
:103310002F01241B350BE0915B03F0915C03E21756
:10332000F307A0F42E1B3F0B2817390778F0AC01E8
:103330004E5F5F4F2417350748F04E0F5F1F5093C5
:103340005C0340935B038193919302C0E0E0F0E063
:10335000CF01DF91CF9108950F931F93CF93DF9308
:10336000009709F48CC0FC013297138212820091FD
:103370005D0310915E030115110581F420813181F7
:10338000820F931F20915B0330915C03281739074C
:1033900079F5F0935C03E0935B0371C0D80140E0E2
:1033A00050E0AE17BF0750F412962D913C91139741
:1033B000AD012115310509F1D901F3CF9D01DA01E4
:1033C0003383228360817181860F971F8217930751
:1033D00069F4EC0128813981260F371F2E5F3F4F9A
:1033E000318320838A819B8193838283452B29F4B7
:1033F000F0935E03E0935D0342C01396FC93EE935B
:103400001297ED01499159919E01240F351FE21742
:10341000F30771F480819181840F951F02961196B4
:103420009C938E938281938113969C938E93129793
:10343000E0E0F0E0D80112968D919C9113970097EF
:1034400019F0F8018C01F6CF8D919C9198012E5FB7
:103450003F4F820F931F20915B0330915C0328172D
:10346000390769F4309729F410925E0310925D03D6
:1034700002C01382128210935C0300935B03DF91FE
:10348000CF911F910F910895A0E0B0E0EAE4FAE136
:103490000C94721BEC01009721F4CB010E941719C8
:1034A000B8C0FC01E60FF71F9C0122503109E2175A
:1034B000F30708F4ACC0D9010D911C9111970617C0
:1034C0001707B0F00530110508F49FC0C801049734
:1034D0008617970708F499C002501109061B170BAD
:1034E000019311936D937C93CF010E94AC198DC011
:1034F0005B01A01AB10A4C01800E911EA0915D03E0
:10350000B0915E0340E050E0E12CF12C109709F4FB
:103510004AC0A815B905D1F56D907C90119763014B
:1035200082E0C80ED11CCA14DB0480F1A3014A1941
:103530005B096A0182E0C80ED11C1296BC901297FA
:103540001396AC91B5E0CB16D10440F0B282A383C0
:1035500051834083D9016D937C930AC00E5F1F4F46
:10356000C301800F911FF90191838083EB2DFA2F06
:10357000E114F10431F0D7011396FC93EE93129706
:1035800044C0F0935E03E0935D033FC08D919C9136
:1035900011974817590708F4AC017D0112960D9058
:1035A000BC91A02DB3CF80915B0390915C038815F3
:1035B0009905E1F446175707C8F480912A019091C4
:1035C0002B01009741F48DB79EB740912E01509189
:1035D0002F01841B950BE817F907C8F4F0935C03DF
:1035E000E0935B03F901718360830FC0CB010E94FC
:1035F00017197C01009759F0A801BE010E94131B06
:10360000CE010E94AC19C70104C0CE0102C080E007
:1036100090E0CDB7DEB7EEE00C948E1B81E090E039
:10362000F8940C94A51BFB01DC0102C001900D92E3
:1036300041505040D8F70895FB01DC0101900D92F4
:103640000020E1F70895BB274A3031F4992322F492
:10365000BDE2909581959F4F0C942F1BBB27FB01DA
:103660005527AA27880F991FAA1FA41710F0A41B7B
:1036700083955051B9F7A05DAA3308F0A95DA193D5
:10368000009779F7B111B1931192CB010C94481BBB
:10369000DC01FC01672F71917723E1F7329704C0B9
:1036A0007C916D9370836291AE17BF07C8F3089544
:1036B000F999FECF92BD81BDF89A992780B50895FA
:1036C000262FF999FECF1FBA92BD81BD20BD0FB63E
:1036D000F894FA9AF99A0FBE019608952F923F92A4
:1036E0004F925F926F927F928F929F92AF92BF9212
:1036F000CF92DF92EF92FF920F931F93CF93DF93BE
:10370000CDB7DEB7CA1BDB0B0FB6F894DEBF0FBE1A
:10371000CDBF09942A88398848885F846E847D8467
:103720008C849B84AA84B984C884DF80EE80FD8069
:103730000C811B81AA81B981CE0FD11D0FB6F894DF
:10374000DEBF0FBECDBFED0108951BE0C2E6DBE09A
:1037500004C0FE010E9411192196C336D107C9F792
:04376000F894FFCF0B
:10376400084000000080D202D60C0001F5110100CF
:103774000000000000000000000000000000000045
:103784000000000000000000030000005F03800050
:1037940000000000630CDF0B2C0C0A0C1E0CAA0C9E
:1037A400000000009D0EDF0B000000009D0EDF0BEB
:1037B4000D0A0050686F6E65203A20004368616E00
:1037C40067696E6720446973706C617920746F2037
:1037D40073637265656E203A2000494E5445525613
:1037E400414C0050484F4E450053544154555300EA
:1037F4003E004E6F74696669636174696F6E73002D
:1038040044617973205B312D395D203A2000534D9A
:0A38140053206E756D6265720000AE
:00000001FF
